{
  "_format": "hh-sol-artifact-1",
  "contractName": "CrowdFunding",
  "sourceName": "contracts/Crowdfunding.sol",
  "abi": [
    {
      "inputs": [
        {
          "internalType": "uint8",
          "name": "_platformTax",
          "type": "uint8"
        }
      ],
      "stateMutability": "nonpayable",
      "type": "constructor"
    },
    {
      "inputs": [
        {
          "internalType": "uint256",
          "name": "campaingDeadline",
          "type": "uint256"
        },
        {
          "internalType": "uint256",
          "name": "requestTime",
          "type": "uint256"
        }
      ],
      "name": "DeadLine",
      "type": "error"
    },
    {
      "inputs": [
        {
          "internalType": "uint256",
          "name": "minAmount",
          "type": "uint256"
        },
        {
          "internalType": "uint256",
          "name": "payedAmount",
          "type": "uint256"
        }
      ],
      "name": "LowEtherAmount",
      "type": "error"
    },
    {
      "anonymous": false,
      "inputs": [
        {
          "indexed": false,
          "internalType": "uint256",
          "name": "id",
          "type": "uint256"
        },
        {
          "indexed": false,
          "internalType": "string",
          "name": "actionType",
          "type": "string"
        },
        {
          "indexed": true,
          "internalType": "address",
          "name": "executor",
          "type": "address"
        },
        {
          "indexed": false,
          "internalType": "uint256",
          "name": "timestamp",
          "type": "uint256"
        }
      ],
      "name": "Action",
      "type": "event"
    },
    {
      "anonymous": false,
      "inputs": [
        {
          "indexed": false,
          "internalType": "bool",
          "name": "State",
          "type": "bool"
        }
      ],
      "name": "ContractStateChanged",
      "type": "event"
    },
    {
      "anonymous": false,
      "inputs": [
        {
          "indexed": true,
          "internalType": "address",
          "name": "previousOwner",
          "type": "address"
        },
        {
          "indexed": true,
          "internalType": "address",
          "name": "newOwner",
          "type": "address"
        }
      ],
      "name": "OwnershipTransferred",
      "type": "event"
    },
    {
      "inputs": [
        {
          "internalType": "uint256",
          "name": "",
          "type": "uint256"
        }
      ],
      "name": "campaigns",
      "outputs": [
        {
          "internalType": "address",
          "name": "owner",
          "type": "address"
        },
        {
          "internalType": "bool",
          "name": "payedOut",
          "type": "bool"
        },
        {
          "internalType": "string",
          "name": "category",
          "type": "string"
        },
        {
          "internalType": "string",
          "name": "email",
          "type": "string"
        },
        {
          "internalType": "string",
          "name": "title",
          "type": "string"
        },
        {
          "internalType": "string",
          "name": "description",
          "type": "string"
        },
        {
          "internalType": "uint256",
          "name": "target",
          "type": "uint256"
        },
        {
          "internalType": "uint256",
          "name": "deadline",
          "type": "uint256"
        },
        {
          "internalType": "uint256",
          "name": "amountCollected",
          "type": "uint256"
        }
      ],
      "stateMutability": "view",
      "type": "function"
    },
    {
      "inputs": [],
      "name": "changeContractState",
      "outputs": [],
      "stateMutability": "nonpayable",
      "type": "function"
    },
    {
      "inputs": [
        {
          "internalType": "uint8",
          "name": "_platformTax",
          "type": "uint8"
        }
      ],
      "name": "changeTax",
      "outputs": [],
      "stateMutability": "nonpayable",
      "type": "function"
    },
    {
      "inputs": [
        {
          "internalType": "address",
          "name": "_owner",
          "type": "address"
        },
        {
          "internalType": "string",
          "name": "_title",
          "type": "string"
        },
        {
          "internalType": "string",
          "name": "_category",
          "type": "string"
        },
        {
          "internalType": "string",
          "name": "_email",
          "type": "string"
        },
        {
          "internalType": "string",
          "name": "_description",
          "type": "string"
        },
        {
          "internalType": "uint256",
          "name": "_target",
          "type": "uint256"
        },
        {
          "internalType": "uint256",
          "name": "_deadline",
          "type": "uint256"
        },
        {
          "internalType": "string[]",
          "name": "_image",
          "type": "string[]"
        },
        {
          "components": [
            {
              "internalType": "string",
              "name": "question",
              "type": "string"
            },
            {
              "internalType": "string",
              "name": "answer",
              "type": "string"
            }
          ],
          "internalType": "struct CrowdFunding.FAQ[]",
          "name": "_faqs",
          "type": "tuple[]"
        },
        {
          "components": [
            {
              "internalType": "string",
              "name": "amount",
              "type": "string"
            },
            {
              "internalType": "string",
              "name": "discount",
              "type": "string"
            }
          ],
          "internalType": "struct CrowdFunding.Packages[]",
          "name": "_packages",
          "type": "tuple[]"
        }
      ],
      "name": "createCampaign",
      "outputs": [
        {
          "internalType": "uint256",
          "name": "",
          "type": "uint256"
        }
      ],
      "stateMutability": "nonpayable",
      "type": "function"
    },
    {
      "inputs": [
        {
          "internalType": "uint256",
          "name": "_id",
          "type": "uint256"
        }
      ],
      "name": "deleteCampaign",
      "outputs": [
        {
          "internalType": "bool",
          "name": "",
          "type": "bool"
        }
      ],
      "stateMutability": "nonpayable",
      "type": "function"
    },
    {
      "inputs": [
        {
          "internalType": "uint256",
          "name": "_id",
          "type": "uint256"
        }
      ],
      "name": "donateToCampaign",
      "outputs": [],
      "stateMutability": "payable",
      "type": "function"
    },
    {
      "inputs": [],
      "name": "emergencyMode",
      "outputs": [
        {
          "internalType": "bool",
          "name": "",
          "type": "bool"
        }
      ],
      "stateMutability": "view",
      "type": "function"
    },
    {
      "inputs": [],
      "name": "getCampaigns",
      "outputs": [
        {
          "components": [
            {
              "internalType": "address",
              "name": "owner",
              "type": "address"
            },
            {
              "internalType": "bool",
              "name": "payedOut",
              "type": "bool"
            },
            {
              "internalType": "string",
              "name": "category",
              "type": "string"
            },
            {
              "internalType": "string",
              "name": "email",
              "type": "string"
            },
            {
              "internalType": "string",
              "name": "title",
              "type": "string"
            },
            {
              "internalType": "string",
              "name": "description",
              "type": "string"
            },
            {
              "internalType": "uint256",
              "name": "target",
              "type": "uint256"
            },
            {
              "internalType": "uint256",
              "name": "deadline",
              "type": "uint256"
            },
            {
              "internalType": "uint256",
              "name": "amountCollected",
              "type": "uint256"
            },
            {
              "internalType": "string[]",
              "name": "image",
              "type": "string[]"
            },
            {
              "internalType": "address[]",
              "name": "donators",
              "type": "address[]"
            },
            {
              "internalType": "uint256[]",
              "name": "donations",
              "type": "uint256[]"
            },
            {
              "components": [
                {
                  "internalType": "string",
                  "name": "question",
                  "type": "string"
                },
                {
                  "internalType": "string",
                  "name": "answer",
                  "type": "string"
                }
              ],
              "internalType": "struct CrowdFunding.FAQ[]",
              "name": "faqs",
              "type": "tuple[]"
            },
            {
              "components": [
                {
                  "internalType": "string",
                  "name": "amount",
                  "type": "string"
                },
                {
                  "internalType": "string",
                  "name": "discount",
                  "type": "string"
                }
              ],
              "internalType": "struct CrowdFunding.Packages[]",
              "name": "packages",
              "type": "tuple[]"
            }
          ],
          "internalType": "struct CrowdFunding.Campaign[]",
          "name": "",
          "type": "tuple[]"
        }
      ],
      "stateMutability": "view",
      "type": "function"
    },
    {
      "inputs": [
        {
          "internalType": "uint256",
          "name": "_id",
          "type": "uint256"
        }
      ],
      "name": "getDonators",
      "outputs": [
        {
          "internalType": "address[]",
          "name": "",
          "type": "address[]"
        },
        {
          "internalType": "uint256[]",
          "name": "",
          "type": "uint256[]"
        }
      ],
      "stateMutability": "view",
      "type": "function"
    },
    {
      "inputs": [
        {
          "internalType": "uint256",
          "name": "_id",
          "type": "uint256"
        }
      ],
      "name": "haltCampaign",
      "outputs": [],
      "stateMutability": "nonpayable",
      "type": "function"
    },
    {
      "inputs": [],
      "name": "numberOfCampaigns",
      "outputs": [
        {
          "internalType": "uint24",
          "name": "",
          "type": "uint24"
        }
      ],
      "stateMutability": "view",
      "type": "function"
    },
    {
      "inputs": [],
      "name": "owner",
      "outputs": [
        {
          "internalType": "address",
          "name": "",
          "type": "address"
        }
      ],
      "stateMutability": "view",
      "type": "function"
    },
    {
      "inputs": [
        {
          "internalType": "uint256",
          "name": "_id",
          "type": "uint256"
        }
      ],
      "name": "payOutToCampaignTeam",
      "outputs": [
        {
          "internalType": "bool",
          "name": "",
          "type": "bool"
        }
      ],
      "stateMutability": "nonpayable",
      "type": "function"
    },
    {
      "inputs": [],
      "name": "platformTax",
      "outputs": [
        {
          "internalType": "uint8",
          "name": "",
          "type": "uint8"
        }
      ],
      "stateMutability": "view",
      "type": "function"
    },
    {
      "inputs": [],
      "name": "renounceOwnership",
      "outputs": [],
      "stateMutability": "nonpayable",
      "type": "function"
    },
    {
      "inputs": [
        {
          "internalType": "address",
          "name": "newOwner",
          "type": "address"
        }
      ],
      "name": "transferOwnership",
      "outputs": [],
      "stateMutability": "nonpayable",
      "type": "function"
    },
    {
      "inputs": [
        {
          "internalType": "uint256",
          "name": "_id",
          "type": "uint256"
        },
        {
          "internalType": "string",
          "name": "_title",
          "type": "string"
        },
        {
          "internalType": "string",
          "name": "_category",
          "type": "string"
        },
        {
          "internalType": "string",
          "name": "_email",
          "type": "string"
        },
        {
          "internalType": "string",
          "name": "_description",
          "type": "string"
        },
        {
          "internalType": "uint256",
          "name": "_target",
          "type": "uint256"
        },
        {
          "internalType": "uint256",
          "name": "_deadline",
          "type": "uint256"
        },
        {
          "internalType": "string[]",
          "name": "_image",
          "type": "string[]"
        },
        {
          "components": [
            {
              "internalType": "string",
              "name": "question",
              "type": "string"
            },
            {
              "internalType": "string",
              "name": "answer",
              "type": "string"
            }
          ],
          "internalType": "struct CrowdFunding.FAQ[]",
          "name": "_updatedFaqs",
          "type": "tuple[]"
        },
        {
          "components": [
            {
              "internalType": "string",
              "name": "amount",
              "type": "string"
            },
            {
              "internalType": "string",
              "name": "discount",
              "type": "string"
            }
          ],
          "internalType": "struct CrowdFunding.Packages[]",
          "name": "_updatedPackages",
          "type": "tuple[]"
        }
      ],
      "name": "updateCampaign",
      "outputs": [
        {
          "internalType": "bool",
          "name": "",
          "type": "bool"
        }
      ],
      "stateMutability": "nonpayable",
      "type": "function"
    },
    {
      "inputs": [
        {
          "internalType": "uint256",
          "name": "_startId",
          "type": "uint256"
        },
        {
          "internalType": "uint256",
          "name": "_endId",
          "type": "uint256"
        }
      ],
      "name": "withdrawFunds",
      "outputs": [],
      "stateMutability": "nonpayable",
      "type": "function"
    }
  ],
  "bytecode": "0x6080346100aa57601f61227038819003918201601f19168301916001600160401b038311848410176100af578084926020946040528339810103126100aa575160ff81168091036100aa5760008054336001600160a01b0319821681178355604051939290916001600160a01b0316907f8be0079c531659141344cd1fd0a4f28419497f9722a3daafe3b4186f6b6457e09080a360ff1960025416176002556121aa90816100c68239f35b600080fd5b634e487b7160e01b600052604160045260246000fdfe608080604052600436101561001357600080fd5b60003560e01c90816307ca140d146118a9575080630905f560146118845780630e8676b91461180d5780630fa91fa914611759578063141961bc146116755780631d8dac63146113705780631ddbe2a814610fec5780633857a5ac14610f7f57806342a4fda814610de55780634cf291d614610dae578063715018a614610d555780637597019314610a875780638da5cb5b14610a5e578063a6b03633146104ec578063b2fabdb0146104cb578063d9acef5f1461031c578063e5253105146101b35763f2fde38b146100e557600080fd5b346101ae5760203660031901126101ae576100fe611a47565b610106611c4f565b6001600160a01b0390811690811561015a57600054826bffffffffffffffffffffffff60a01b821617600055167f8be0079c531659141344cd1fd0a4f28419497f9722a3daafe3b4186f6b6457e0600080a3005b60405162461bcd60e51b815260206004820152602660248201527f4f776e61626c653a206e6577206f776e657220697320746865207a65726f206160448201526564647265737360d01b6064820152608490fd5b600080fd5b346101ae5760403660031901126101ae576101cc611c4f565b60ff60025460201c16156101ae5760043580602435821015915b6024358111156101f257005b826102e45760243560009081526001602052604090205461021d906001600160a01b03161515611f0b565b815b6024358110610237575061023290611e0f565b6101e6565b8060005260016020526040600020600981015480610260575b505061025b90611e0f565b61021f565b60005b81811061027d575050600060079091015561025b85610250565b806102d96102916102df93600a8701611e55565b9054906102a184600a8901611e55565b8154600019600392831b1b19169091556102be8560098a01611e55565b905492821b9390931c92901b1c6001600160a01b0316612092565b50611e0f565b610263565b60405162461bcd60e51b815260206004820152601060248201526f496e76616c69642069642072616e676560801b6044820152606490fd5b346101ae576020806003193601126101ae5760043561033a816120df565b60ff600254831c166101ae57806000526001908183528160ff60406000205460a01c16151514610486576000546001600160a01b03908116330361044b575b8160005282845260076040600020600160a01b60ff60a01b1982541617815501549060ff60025416808302908382041483151715610435576064900490836000528486528060406000205416828403938411610435576103e6936103dc91612092565b5060005416612092565b50604051908152606083820152601060608201526f119d5b991cc815da5d1a191c985dd85b60821b608082015242604082015260008051602061215583398151915260a03392a2604051908152f35b634e487b7160e01b600052601160045260246000fd5b816000528284526006604060002001544281116104685750610379565b60449060405190630113bf8960e11b82526004820152426024820152fd5b60405162461bcd60e51b815260206004820152601760248201527f46756e64732077697468647261776564206265666f72650000000000000000006044820152606490fd5b346101ae5760003660031901126101ae57602060ff60025416604051908152f35b346101ae5760003660031901126101ae576002805462ffffff600891821c169061051582611ac0565b92610523604051948561193f565b828452601f1961053284611ac0565b0160005b8181106109e857505060005b8381106107ee57846040518091602082016020835281518091526040830190602060408260051b8601019301916000905b82821061058257505050500390f35b919390929450603f1986820301825284519060018060a01b0382511681526020820151151560208201526106076105f46105e16105ce60408601516101c0806040880152860190611a07565b6060808701519086830390870152611a07565b6080808601519085830390860152611a07565b60a0808501519084830390850152611a07565b9060c0808401519082015260e083015160e0820152610100808401519082015261012091828401519282820390830152825180825260208201906020808260051b85010195019260005b8281106107c357505050505061014091828401519282820390830152602080845192838152019301906000905b8082106107a15750505061016083015191818103610160830152602080845192838152019301906000905b8082106107895750505061018091828401519282820390830152825180825260208201906020808260051b85010195019260005b82811061075e5750505050506101a08093015192818303910152815180825260208201906020808260051b85010194019260005b8281106107335750505050506020806001929601920192018594939192610573565b9091929394602080610751600193601f198782030189528951611c22565b9701950193929101610711565b909192939560208061077c600193601f198782030189528a51611c22565b98019501939291016106dd565b909193602080600192875181520195019201906106a9565b82516001600160a01b031685526020948501949092019160019091019061067e565b90919293956020806107e1600193601f198782030189528a51611a07565b9801950193929101610651565b80600052600160208181526040600020916040519261080c84611906565b80546001600160a01b038116855260a090811c60ff16151584860152610833838301611961565b6040860152610843878301611961565b606086015261085460038301611961565b608086015261086560048301611961565b90850152600581015460c0850152600681015460e08501526007810154610100850152868101805461089681611ac0565b916108a4604051938461193f565b818352600090815285812090858785015b888584106109cd575050505050506101208501526108d560098201611fbf565b6101408501526108e7600a8201612017565b610160850152600b810180546108fc81611ac0565b9161090a604051938461193f565b818352600090815285812090858a888087015b8685106109b2575050505050505090600c916101808601520180549061094282611ac0565b93610950604051958661193f565b828552600091825280822091888287015b85831061099557505050505050509061099092916101a08201526109858288611e41565b526102d98187611e41565b610542565b908387926109a287612066565b8152019401910190928990610961565b6109bb86612066565b8152019301910190918a88889261091d565b82916109d886611961565b81520193019101909186906108b5565b6020906040516109f781611906565b6000815282600081830152606080604084015280808401528060808401528060a0840152600060c0840152600060e08401526000610100840152806101208401528061014084015280610160840152806101808401526101a0830152828901015201610536565b346101ae5760003660031901126101ae576000546040516001600160a01b039091168152602090f35b346101ae576020806003193601126101ae57600435610aa5816120df565b600260ff8154841c166101ae578160005260019182845260018060a01b03610ad581604060002054161515611f0b565b8160005283855260406000209060078201918254610cd2575b50505080600052828452604060002060008155610b0c848201611f57565b610b17838201611f57565b610b2360038201611f57565b610b2f60048201611f57565b600060058201556000600682015560006007820155600881018054906000815581610ca7575b5050610b6a6009820180549060008155611fa0565b610b7d600a820180549060008155611fa0565b600b81018054906000815581610c5f575b5050600c018054906000815581610c17575b5050604051908152606084820152601060608201526f10d85b5c185a59db8811195b195d195960821b608082015242604082015260008051602061215583398151915260a03392a2805463ffffff00610c0062ffffff8360081c16611ef6565b60081b169063ffffff001916179055604051908152f35b6001600160ff1b038216820361043557600052828560002091851b8201915b828110610c435750610ba0565b610c4c81611f57565b610c57868201611f57565b018390610c36565b6001600160ff1b038216820361043557600052838660002091861b8201915b828110610c8b5750610b8e565b610c9481611f57565b610c9f878201611f57565b018490610c7e565b6000528486600020918201915b828110610cc15750610b55565b610cca81611f57565b018590610cb4565b85906009810190600a016000835b610cf6575b505050505060009055848080610aee565b8254811015610d5057806102d986610d11610d4a9486611e55565b919054610d1e8588611e55565b8154600019600392831b1b191690915590610d39868a611e55565b919094831b1c9354911b1c16612092565b83610ce0565b610ce5565b346101ae5760003660031901126101ae57610d6e611c4f565b600080546001600160a01b0319811682556001600160a01b03167f8be0079c531659141344cd1fd0a4f28419497f9722a3daafe3b4186f6b6457e08280a3005b346101ae5760203660031901126101ae5760043560ff81168091036101ae57610dd5611c4f565b60ff196002541617600255600080f35b60203660031901126101ae5760043560ff60025460201c166101ae573415610f605780600052600160205260406000208054600160ff8260a01c16151514610486576001600160a01b0390610e3d9082161515611f0b565b60068201544211610f31576007820180549034820180921161043557556009820191825491600160401b9384841015610f1b5783610e82916001600a96018155611e55565b819291549060031b9133831b921b19161790550190815490811015610f1b57610eb091600182018155611e55565b81549060031b9034821b91600019901b191617905560405190815260606020820152601860608201527f446f6e6174696f6e20546f205468652043616d706169676e0000000000000000608082015242604082015260008051602061215583398151915260a03392a2005b634e487b7160e01b600052604160045260246000fd5b826000526001602052604460066040600020015460405190630113bf8960e11b82526004820152426024820152fd5b604051638351d91760e01b815260016004820152346024820152604490fd5b346101ae5760003660031901126101ae57610f98611c4f565b7f2cde22acc8fd53a00979e46849e256a19250dc0d6626358410d5a4ee27ad6c79602060025464ff0000000060ff82841c1615831b169064ff000000001916178060025560ff60405191831c1615158152a1005b346101ae576101403660031901126101ae5767ffffffffffffffff6004356024358281116101ae57611022903690600401611a79565b906044358381116101ae5761103b903690600401611a79565b916064358481116101ae57611054903690600401611a79565b6084358581116101ae5761106c903690600401611a79565b9460a4359560c4359260e4358381116101ae5761108d903690600401611ad8565b91610104358481116101ae576110a7903690600401611b59565b93610124359081116101ae576110c1903690600401611b59565b946110cb886120df565b8651151580611366575b8061135d575b80611354575b8061134a575b80611337575b156112f25760ff60025460201c166101ae5761110a814210611ca7565b876000526001998a60205260406000209761112f60018060a01b038a54161515611f0b565b600789019384546112ad576111696000966111608f9e8f6111598f9e9f9760036111729901611d0a565b8d01611d0a565b60028b01611d0a565b60048901611d0a565b6005870155600686015555825460ff60a01b1916835560088301966000905b611275575b5050600b820195506000855b61123d575b5050600c0193506000835b611209575b60208484604051908152606083820152601060608201526f10d85b5c185a59db88155c19185d195960821b608082015242604082015260008051602061215583398151915260a03392a2604051908152f35b815181101561123857906112318261122c611225879585611e41565b5188611eb0565b611e0f565b90916111b2565b6111b7565b819392935181101561126d57906112638261122c61125c899585611e41565b518a611eb0565b90919392936111a2565b9291926111a7565b81949394518110156112a5579061129b8261122c6112948a9585611e41565b518b611e6d565b9091949394611191565b939293611196565b60405162461bcd60e51b815260206004820152601e60248201527f557064617465206572726f723a20616d6f756e7420636f6c6c656374656400006044820152606490fd5b60405162461bcd60e51b815260206004820152601960248201527f4e756c6c2076616c7565206e6f742061636365707461626c65000000000000006044820152606490fd5b5061134184611e1e565b515115156110ed565b50835115156110e7565b508015156110e1565b508915156110db565b50815115156110d5565b346101ae576101403660031901126101ae5761138a611a47565b67ffffffffffffffff906024358281116101ae576113ac903690600401611a79565b6044358381116101ae576113c4903690600401611a79565b916064358481116101ae576113dd903690600401611a79565b906084358581116101ae576113f6903690600401611a79565b60e4358681116101ae5761140e903690600401611ad8565b93610104358781116101ae57611428903690600401611b59565b96610124359081116101ae57611442903690600401611b59565b95815115158061166b575b80611660575b80611655575b8061164b575b80611638575b156112f2576002549360ff8560201c166101ae5761148660c4354210611ca7565b62ffffff8560081c16600052600160205260406000209562ffffff808760081c1614610435576115066115189461150f938863ffffff0060019d9e9d62ffffff6115219c60081c160160081b169063ffffff0019161760025560018060a01b03166bffffffffffffffffffffffff60a01b8a541617895560038901611d0a565b60028701611d0a565b60018501611d0a565b60048301611d0a565b60a435600582015560c4356006820155600060078201819055815460ff60a01b191682556008820194905b8351811015611572578061122c61156661156d9387611e41565b5188611e6d565b61154c565b509083600092600b8301935b82518110156115a4578061122c61159861159f9386611e41565b5187611eb0565b61157e565b50600c83019060005b81518110156115d3578061122c6115c76115ce9385611e41565b5185611eb0565b6115ad565b602062ffffff61162f8160025460081c16604051818152606085820152601060608201526f10d85b5c185a59db8810dc99585d195960821b608082015242604082015260008051602061215583398151915260a03392a2611ef6565b16604051908152f35b5061164286611e1e565b51511515611465565b508551151561145f565b5060c4351515611459565b5060a4351515611453565b508251151561144d565b346101ae5760203660031901126101ae57600435600052600160205260ff60406000208054906116a760018201611961565b6116b360028301611961565b916117446116c360038301611961565b6117366116d260048501611961565b9161172860058601549761171a60076006890154980154986040519c8d9c8d60018060a01b038216905260a01c16151560208d015260408c61012091829101528c0190611a07565b908a820360608c0152611a07565b9088820360808a0152611a07565b9086820360a0880152611a07565b9260c085015260e08401526101008301520390f35b346101ae576020806003193601126101ae576004356000526001808252604060002090611794600a61178d60098501611fbf565b9301612017565b926040519260408401604085528151809152826060860192019060005b8181106117f1575050508381038285015281808651928381520195019160005b8281106117de5785870386f35b83518752958101959281019284016117d1565b82516001600160a01b03168452928401929184019185016117b1565b346101ae5760203660031901126101ae57600435611829611c4f565b8060005260016020524260066040600020015560405190815260606020820152600f60608201526e10d85b5c185a59db881a185b1d1959608a1b608082015242604082015260008051602061215583398151915260a03392a2005b346101ae5760003660031901126101ae57602060025460ff60405191831c1615158152f35b346101ae5760003660031901126101ae5760209062ffffff60025460081c168152f35b90600182811c921680156118fc575b60208310146118e657565b634e487b7160e01b600052602260045260246000fd5b91607f16916118db565b6101c0810190811067ffffffffffffffff821117610f1b57604052565b6040810190811067ffffffffffffffff821117610f1b57604052565b90601f8019910116810190811067ffffffffffffffff821117610f1b57604052565b9060405191826000825492611975846118cc565b9081845260019485811690816000146119e457506001146119a1575b505061199f9250038361193f565b565b9093915060005260209081600020936000915b8183106119cc57505061199f93508201013880611991565b855488840185015294850194879450918301916119b4565b91505061199f94506020925060ff191682840152151560051b8201013880611991565b919082519283825260005b848110611a33575050826000602080949584010152601f8019910116010190565b602081830181015184830182015201611a12565b600435906001600160a01b03821682036101ae57565b67ffffffffffffffff8111610f1b57601f01601f191660200190565b81601f820112156101ae57803590611a9082611a5d565b92611a9e604051948561193f565b828452602083830101116101ae57816000926020809301838601378301015290565b67ffffffffffffffff8111610f1b5760051b60200190565b9080601f830112156101ae57813590611af082611ac0565b92611afe604051948561193f565b828452602092838086019160051b830101928084116101ae57848301915b848310611b2c5750505050505090565b823567ffffffffffffffff81116101ae578691611b4e84848094890101611a79565b815201920191611b1c565b81601f820112156101ae57803590611b7082611ac0565b92604092611b808451958661193f565b808552602093848087019260051b850101938385116101ae57858101925b858410611baf575050505050505090565b67ffffffffffffffff84358181116101ae5783019184601f1984890301126101ae578451611bdc81611923565b898401358381116101ae57888b611bf592870101611a79565b8152858401359283116101ae57611c13888b80969581960101611a79565b83820152815201930192611b9e565b611c4c916020611c3b8351604084526040840190611a07565b920151906020818403910152611a07565b90565b6000546001600160a01b03163303611c6357565b606460405162461bcd60e51b815260206004820152602060248201527f4f776e61626c653a2063616c6c6572206973206e6f7420746865206f776e65726044820152fd5b15611cae57565b60405162461bcd60e51b815260206004820152601e60248201527f446561646c696e65206d75737420626520696e207468652066757475726500006044820152606490fd5b818110611cfe575050565b60008155600101611cf3565b919091825167ffffffffffffffff8111610f1b57611d2882546118cc565b601f8111611dd2575b50602080601f8311600114611d6e575081929394600092611d63575b50508160011b916000199060031b1c1916179055565b015190503880611d4d565b90601f198316958460005282600020926000905b888210611dba57505083600195969710611da1575b505050811b019055565b015160001960f88460031b161c19169055388080611d97565b80600185968294968601518155019501930190611d82565b611dff90836000526020600020601f840160051c81019160208510611e05575b601f0160051c0190611cf3565b38611d31565b9091508190611df2565b60001981146104355760010190565b805115611e2b5760200190565b634e487b7160e01b600052603260045260246000fd5b8051821015611e2b5760209160051b010190565b8054821015611e2b5760005260206000200190600090565b8054600160401b811015610f1b57611e8a91600182018155611e55565b919091611e9a5761199f91611d0a565b634e487b7160e01b600052600060045260246000fd5b908154600160401b811015610f1b5760018101808455811015611e2b57602060019161199f946000528160002090831b0192611eed815185611d0a565b01519101611d0a565b62ffffff908116600019019190821161043557565b15611f1257565b60405162461bcd60e51b815260206004820152601e60248201527f4e6f2063616d706169676e2065786973742077697468207468697320494400006044820152606490fd5b611f6181546118cc565b9081611f6b575050565b81601f60009311600114611f7d575055565b908083918252611f9c601f60208420940160051c840160018501611cf3565b5555565b9080611faa575050565b61199f91600052602060002090810190611cf3565b9060405191828154918282526020928383019160005283600020936000905b828210611ff45750505061199f9250038361193f565b85546001600160a01b031684526001958601958895509381019390910190611fde565b9060405191828154918282526020928383019160005283600020936000905b82821061204c5750505061199f9250038361193f565b855484526001958601958895509381019390910190612036565b9060405161207381611923565b602061208d6001839561208581611961565b855201611961565b910152565b600080808094819460018060a01b03165af13d156120da573d6120b481611a5d565b906120c2604051928361193f565b81528260203d92013e5b156120d75750600190565b80fd5b6120cc565b600090815260016020526040902054336001600160a01b0391821614908115612146575b501561210b57565b60405162461bcd60e51b8152602060048201526013602482015272556e617574686f72697a656420456e7469747960681b6044820152606490fd5b90506000541633143861210356feaee8e5d3bbb2f71a951b5632cee20f7ac487b9f8ab4f66a236f7694b13af7c6aa2646970667358221220a52f123a109c11e0845ca8178027fb7180c111aca7116b0597875550b2dfeadb64736f6c63430008130033",
  "linkReferences": {},
  "deployedLinkReferences": {}
}